{
  "_format": "hh-sol-artifact-1",
  "contractName": "AllCause",
  "sourceName": "contracts/AllCause.sol",
  "abi": [
    {
      "inputs": [],
      "stateMutability": "nonpayable",
      "type": "constructor"
    },
    {
      "anonymous": false,
      "inputs": [
        {
          "indexed": true,
          "internalType": "uint256",
          "name": "causeId",
          "type": "uint256"
        },
        {
          "indexed": true,
          "internalType": "address",
          "name": "causeContract",
          "type": "address"
        },
        {
          "indexed": true,
          "internalType": "uint256",
          "name": "tokenId",
          "type": "uint256"
        },
        {
          "indexed": false,
          "internalType": "address",
          "name": "creator",
          "type": "address"
        },
        {
          "indexed": false,
          "internalType": "address",
          "name": "donor",
          "type": "address"
        },
        {
          "indexed": false,
          "internalType": "uint256",
          "name": "amount",
          "type": "uint256"
        },
        {
          "indexed": false,
          "internalType": "uint256",
          "name": "goal",
          "type": "uint256"
        },
        {
          "indexed": false,
          "internalType": "bool",
          "name": "completed",
          "type": "bool"
        }
      ],
      "name": "CauseItemCreated",
      "type": "event"
    },
    {
      "inputs": [
        {
          "internalType": "address",
          "name": "causeContract",
          "type": "address"
        },
        {
          "internalType": "uint256",
          "name": "causeId",
          "type": "uint256"
        },
        {
          "internalType": "uint256",
          "name": "curramt",
          "type": "uint256"
        }
      ],
      "name": "createCauseDonate",
      "outputs": [],
      "stateMutability": "payable",
      "type": "function"
    },
    {
      "inputs": [
        {
          "internalType": "address",
          "name": "causeContract",
          "type": "address"
        },
        {
          "internalType": "uint256",
          "name": "tokenId",
          "type": "uint256"
        },
        {
          "internalType": "uint256",
          "name": "amount",
          "type": "uint256"
        },
        {
          "internalType": "uint256",
          "name": "goal",
          "type": "uint256"
        }
      ],
      "name": "createCauseItem",
      "outputs": [],
      "stateMutability": "payable",
      "type": "function"
    },
    {
      "inputs": [],
      "name": "fetchCauseItems",
      "outputs": [
        {
          "components": [
            {
              "internalType": "uint256",
              "name": "causeId",
              "type": "uint256"
            },
            {
              "internalType": "address",
              "name": "causeContract",
              "type": "address"
            },
            {
              "internalType": "uint256",
              "name": "tokenId",
              "type": "uint256"
            },
            {
              "internalType": "address payable",
              "name": "creator",
              "type": "address"
            },
            {
              "internalType": "address payable",
              "name": "donor",
              "type": "address"
            },
            {
              "internalType": "uint256",
              "name": "amount",
              "type": "uint256"
            },
            {
              "internalType": "uint256",
              "name": "goal",
              "type": "uint256"
            },
            {
              "internalType": "bool",
              "name": "completed",
              "type": "bool"
            }
          ],
          "internalType": "struct AllCause.CauseItem[]",
          "name": "",
          "type": "tuple[]"
        }
      ],
      "stateMutability": "view",
      "type": "function"
    },
    {
      "inputs": [],
      "name": "fetchCausesCreated",
      "outputs": [
        {
          "components": [
            {
              "internalType": "uint256",
              "name": "causeId",
              "type": "uint256"
            },
            {
              "internalType": "address",
              "name": "causeContract",
              "type": "address"
            },
            {
              "internalType": "uint256",
              "name": "tokenId",
              "type": "uint256"
            },
            {
              "internalType": "address payable",
              "name": "creator",
              "type": "address"
            },
            {
              "internalType": "address payable",
              "name": "donor",
              "type": "address"
            },
            {
              "internalType": "uint256",
              "name": "amount",
              "type": "uint256"
            },
            {
              "internalType": "uint256",
              "name": "goal",
              "type": "uint256"
            },
            {
              "internalType": "bool",
              "name": "completed",
              "type": "bool"
            }
          ],
          "internalType": "struct AllCause.CauseItem[]",
          "name": "",
          "type": "tuple[]"
        }
      ],
      "stateMutability": "view",
      "type": "function"
    },
    {
      "inputs": [],
      "name": "fetchMyCauses",
      "outputs": [
        {
          "components": [
            {
              "internalType": "uint256",
              "name": "causeId",
              "type": "uint256"
            },
            {
              "internalType": "address",
              "name": "causeContract",
              "type": "address"
            },
            {
              "internalType": "uint256",
              "name": "tokenId",
              "type": "uint256"
            },
            {
              "internalType": "address payable",
              "name": "creator",
              "type": "address"
            },
            {
              "internalType": "address payable",
              "name": "donor",
              "type": "address"
            },
            {
              "internalType": "uint256",
              "name": "amount",
              "type": "uint256"
            },
            {
              "internalType": "uint256",
              "name": "goal",
              "type": "uint256"
            },
            {
              "internalType": "bool",
              "name": "completed",
              "type": "bool"
            }
          ],
          "internalType": "struct AllCause.CauseItem[]",
          "name": "",
          "type": "tuple[]"
        }
      ],
      "stateMutability": "view",
      "type": "function"
    },
    {
      "inputs": [],
      "name": "getListingPrice",
      "outputs": [
        {
          "internalType": "uint256",
          "name": "",
          "type": "uint256"
        }
      ],
      "stateMutability": "view",
      "type": "function"
    },
    {
      "inputs": [
        {
          "internalType": "uint256",
          "name": "_price",
          "type": "uint256"
        }
      ],
      "name": "setListingPrice",
      "outputs": [
        {
          "internalType": "uint256",
          "name": "",
          "type": "uint256"
        }
      ],
      "stateMutability": "nonpayable",
      "type": "function"
    }
  ],
  "bytecode": "0x60806040526658d15e1762800060045566b1a2bc2ec5000060055534801561002657600080fd5b50600160008190555033600360006101000a81548173ffffffffffffffffffffffffffffffffffffffff021916908373ffffffffffffffffffffffffffffffffffffffff160217905550611b378061007f6000396000f3fe6080604052600436106100705760003560e01c806382cca9b01161004e57806382cca9b014610108578063af71d2c614610133578063d3605c021461015e578063e837cb0f1461017a57610070565b806312e855851461007557806351313d42146100a05780637c726b69146100cb575b600080fd5b34801561008157600080fd5b5061008a610196565b6040516100979190611810565b60405180910390f35b3480156100ac57600080fd5b506100b56101a0565b6040516100c2919061176e565b60405180910390f35b3480156100d757600080fd5b506100f260048036038101906100ed919061149e565b61055b565b6040516100ff9190611810565b60405180910390f35b34801561011457600080fd5b5061011d6105a3565b60405161012a919061176e565b60405180910390f35b34801561013f57600080fd5b5061014861095e565b604051610155919061176e565b60405180910390f35b610178600480360381019061017391906113ec565b610c95565b005b610194600480360381019061018f919061143b565b610f9d565b005b6000600454905090565b606060006101ae6001611315565b905060008060005b83811015610257573373ffffffffffffffffffffffffffffffffffffffff16600660006001846101e69190611875565b815260200190815260200160002060030160009054906101000a900473ffffffffffffffffffffffffffffffffffffffff1673ffffffffffffffffffffffffffffffffffffffff161415610244576001836102419190611875565b92505b808061024f9061196b565b9150506101b6565b5060008267ffffffffffffffff81111561029a577f4e487b7100000000000000000000000000000000000000000000000000000000600052604160045260246000fd5b6040519080825280602002602001820160405280156102d357816020015b6102c0611339565b8152602001906001900390816102b85790505b50905060005b84811015610550573373ffffffffffffffffffffffffffffffffffffffff16600660006001846103099190611875565b815260200190815260200160002060030160009054906101000a900473ffffffffffffffffffffffffffffffffffffffff1673ffffffffffffffffffffffffffffffffffffffff16141561053d5760006006600060018461036a9190611875565b815260200190815260200160002060000154905060006006600083815260200190815260200160002090508060405180610100016040529081600082015481526020016001820160009054906101000a900473ffffffffffffffffffffffffffffffffffffffff1673ffffffffffffffffffffffffffffffffffffffff1673ffffffffffffffffffffffffffffffffffffffff168152602001600282015481526020016003820160009054906101000a900473ffffffffffffffffffffffffffffffffffffffff1673ffffffffffffffffffffffffffffffffffffffff1673ffffffffffffffffffffffffffffffffffffffff1681526020016004820160009054906101000a900473ffffffffffffffffffffffffffffffffffffffff1673ffffffffffffffffffffffffffffffffffffffff1673ffffffffffffffffffffffffffffffffffffffff16815260200160058201548152602001600682015481526020016007820160009054906101000a900460ff161515151581525050848681518110610520577f4e487b7100000000000000000000000000000000000000000000000000000000600052603260045260246000fd5b60200260200101819052506001856105389190611875565b945050505b80806105489061196b565b9150506102d9565b508094505050505090565b60003073ffffffffffffffffffffffffffffffffffffffff163373ffffffffffffffffffffffffffffffffffffffff16141561059957816004819055505b6004549050919050565b606060006105b16001611315565b905060008060005b8381101561065a573373ffffffffffffffffffffffffffffffffffffffff16600660006001846105e99190611875565b815260200190815260200160002060040160009054906101000a900473ffffffffffffffffffffffffffffffffffffffff1673ffffffffffffffffffffffffffffffffffffffff161415610647576001836106449190611875565b92505b80806106529061196b565b9150506105b9565b5060008267ffffffffffffffff81111561069d577f4e487b7100000000000000000000000000000000000000000000000000000000600052604160045260246000fd5b6040519080825280602002602001820160405280156106d657816020015b6106c3611339565b8152602001906001900390816106bb5790505b50905060005b84811015610953573373ffffffffffffffffffffffffffffffffffffffff166006600060018461070c9190611875565b815260200190815260200160002060040160009054906101000a900473ffffffffffffffffffffffffffffffffffffffff1673ffffffffffffffffffffffffffffffffffffffff1614156109405760006006600060018461076d9190611875565b815260200190815260200160002060000154905060006006600083815260200190815260200160002090508060405180610100016040529081600082015481526020016001820160009054906101000a900473ffffffffffffffffffffffffffffffffffffffff1673ffffffffffffffffffffffffffffffffffffffff1673ffffffffffffffffffffffffffffffffffffffff168152602001600282015481526020016003820160009054906101000a900473ffffffffffffffffffffffffffffffffffffffff1673ffffffffffffffffffffffffffffffffffffffff1673ffffffffffffffffffffffffffffffffffffffff1681526020016004820160009054906101000a900473ffffffffffffffffffffffffffffffffffffffff1673ffffffffffffffffffffffffffffffffffffffff1673ffffffffffffffffffffffffffffffffffffffff16815260200160058201548152602001600682015481526020016007820160009054906101000a900460ff161515151581525050848681518110610923577f4e487b7100000000000000000000000000000000000000000000000000000000600052603260045260246000fd5b602002602001018190525060018561093b9190611875565b945050505b808061094b9061196b565b9150506106dc565b508094505050505090565b6060600061096c6001611315565b9050600061097a6002611315565b6109846001611315565b61098e91906118cb565b90506000808267ffffffffffffffff8111156109d3577f4e487b7100000000000000000000000000000000000000000000000000000000600052604160045260246000fd5b604051908082528060200260200182016040528015610a0c57816020015b6109f9611339565b8152602001906001900390816109f15790505b50905060005b84811015610c8a57600073ffffffffffffffffffffffffffffffffffffffff1660066000600184610a439190611875565b815260200190815260200160002060040160009054906101000a900473ffffffffffffffffffffffffffffffffffffffff1673ffffffffffffffffffffffffffffffffffffffff161415610c7757600060066000600184610aa49190611875565b815260200190815260200160002060000154905060006006600083815260200190815260200160002090508060405180610100016040529081600082015481526020016001820160009054906101000a900473ffffffffffffffffffffffffffffffffffffffff1673ffffffffffffffffffffffffffffffffffffffff1673ffffffffffffffffffffffffffffffffffffffff168152602001600282015481526020016003820160009054906101000a900473ffffffffffffffffffffffffffffffffffffffff1673ffffffffffffffffffffffffffffffffffffffff1673ffffffffffffffffffffffffffffffffffffffff1681526020016004820160009054906101000a900473ffffffffffffffffffffffffffffffffffffffff1673ffffffffffffffffffffffffffffffffffffffff1673ffffffffffffffffffffffffffffffffffffffff16815260200160058201548152602001600682015481526020016007820160009054906101000a900460ff161515151581525050848681518110610c5a577f4e487b7100000000000000000000000000000000000000000000000000000000600052603260045260246000fd5b6020026020010181905250600185610c729190611875565b945050505b8080610c829061196b565b915050610a12565b508094505050505090565b60026000541415610cdb576040517f08c379a0000000000000000000000000000000000000000000000000000000008152600401610cd2906117f0565b60405180910390fd5b60026000819055506000819050600060066000858152602001908152602001600020600201549050600554341015610d48576040517f08c379a0000000000000000000000000000000000000000000000000000000008152600401610d3f90611790565b60405180910390fd5b6006600085815260200190815260200160002060030160009054906101000a900473ffffffffffffffffffffffffffffffffffffffff1673ffffffffffffffffffffffffffffffffffffffff166108fc349081150290604051600060405180830381858888f19350505050158015610dc4573d6000803e3d6000fd5b508473ffffffffffffffffffffffffffffffffffffffff166323b872dd3033846040518463ffffffff1660e01b8152600401610e0293929190611737565b600060405180830381600087803b158015610e1c57600080fd5b505af1158015610e30573d6000803e3d6000fd5b50505050336006600086815260200190815260200160002060040160006101000a81548173ffffffffffffffffffffffffffffffffffffffff021916908373ffffffffffffffffffffffffffffffffffffffff16021790555081600660008681526020019081526020016000206005016000828254610eaf9190611875565b925050819055506006600085815260200190815260200160002060060154600660008681526020019081526020016000206005015410610f235760016006600086815260200190815260200160002060070160006101000a81548160ff021916908315150217905550610f226002611323565b5b600360009054906101000a900473ffffffffffffffffffffffffffffffffffffffff1673ffffffffffffffffffffffffffffffffffffffff166108fc6004549081150290604051600060405180830381858888f19350505050158015610f8d573d6000803e3d6000fd5b5050506001600081905550505050565b60026000541415610fe3576040517f08c379a0000000000000000000000000000000000000000000000000000000008152600401610fda906117f0565b60405180910390fd5b60026000819055506000811161102e576040517f08c379a0000000000000000000000000000000000000000000000000000000008152600401611025906117b0565b60405180910390fd5b6004543414611072576040517f08c379a0000000000000000000000000000000000000000000000000000000008152600401611069906117d0565b60405180910390fd5b61107c6001611323565b60006110886001611315565b90506040518061010001604052808281526020018673ffffffffffffffffffffffffffffffffffffffff1681526020018581526020013373ffffffffffffffffffffffffffffffffffffffff168152602001600073ffffffffffffffffffffffffffffffffffffffff16815260200184815260200183815260200160001515815250600660008381526020019081526020016000206000820151816000015560208201518160010160006101000a81548173ffffffffffffffffffffffffffffffffffffffff021916908373ffffffffffffffffffffffffffffffffffffffff1602179055506040820151816002015560608201518160030160006101000a81548173ffffffffffffffffffffffffffffffffffffffff021916908373ffffffffffffffffffffffffffffffffffffffff16021790555060808201518160040160006101000a81548173ffffffffffffffffffffffffffffffffffffffff021916908373ffffffffffffffffffffffffffffffffffffffff16021790555060a0820151816005015560c0820151816006015560e08201518160070160006101000a81548160ff0219169083151502179055509050508473ffffffffffffffffffffffffffffffffffffffff166323b872dd3330876040518463ffffffff1660e01b815260040161127a93929190611737565b600060405180830381600087803b15801561129457600080fd5b505af11580156112a8573d6000803e3d6000fd5b50505050838573ffffffffffffffffffffffffffffffffffffffff16827f611ed2be70c8899cb5fa57e5e37223d657e6ee193a86e09204f1eb6717741320336000808860006040516112fe9594939291906116e4565b60405180910390a450600160008190555050505050565b600081600001549050919050565b6001816000016000828254019250508190555050565b60405180610100016040528060008152602001600073ffffffffffffffffffffffffffffffffffffffff16815260200160008152602001600073ffffffffffffffffffffffffffffffffffffffff168152602001600073ffffffffffffffffffffffffffffffffffffffff16815260200160008152602001600081526020016000151581525090565b6000813590506113d181611ad3565b92915050565b6000813590506113e681611aea565b92915050565b60008060006060848603121561140157600080fd5b600061140f868287016113c2565b9350506020611420868287016113d7565b9250506040611431868287016113d7565b9150509250925092565b6000806000806080858703121561145157600080fd5b600061145f878288016113c2565b9450506020611470878288016113d7565b9350506040611481878288016113d7565b9250506060611492878288016113d7565b91505092959194509250565b6000602082840312156114b057600080fd5b60006114be848285016113d7565b91505092915050565b60006114d38383611624565b6101008301905092915050565b6114e981611911565b82525050565b6114f8816118ff565b82525050565b611507816118ff565b82525050565b60006115188261183b565b6115228185611853565b935061152d8361182b565b8060005b8381101561155e57815161154588826114c7565b975061155083611846565b925050600181019050611531565b5085935050505092915050565b61157481611923565b82525050565b61158381611923565b82525050565b61159281611959565b82525050565b60006115a5603c83611864565b91506115b0826119e3565b604082019050919050565b60006115c8601883611864565b91506115d382611a32565b602082019050919050565b60006115eb602483611864565b91506115f682611a5b565b604082019050919050565b600061160e601f83611864565b915061161982611aaa565b602082019050919050565b6101008201600082015161163b60008501826116c6565b50602082015161164e60208501826114ef565b50604082015161166160408501826116c6565b50606082015161167460608501826114e0565b50608082015161168760808501826114e0565b5060a082015161169a60a08501826116c6565b5060c08201516116ad60c08501826116c6565b5060e08201516116c060e085018261156b565b50505050565b6116cf8161194f565b82525050565b6116de8161194f565b82525050565b600060a0820190506116f960008301886114fe565b61170660208301876114fe565b6117136040830186611589565b61172060608301856116d5565b61172d608083018461157a565b9695505050505050565b600060608201905061174c60008301866114fe565b61175960208301856114fe565b61176660408301846116d5565b949350505050565b60006020820190508181036000830152611788818461150d565b905092915050565b600060208201905081810360008301526117a981611598565b9050919050565b600060208201905081810360008301526117c9816115bb565b9050919050565b600060208201905081810360008301526117e9816115de565b9050919050565b6000602082019050818103600083015261180981611601565b9050919050565b600060208201905061182560008301846116d5565b92915050565b6000819050602082019050919050565b600081519050919050565b6000602082019050919050565b600082825260208201905092915050565b600082825260208201905092915050565b60006118808261194f565b915061188b8361194f565b9250827fffffffffffffffffffffffffffffffffffffffffffffffffffffffffffffffff038211156118c0576118bf6119b4565b5b828201905092915050565b60006118d68261194f565b91506118e18361194f565b9250828210156118f4576118f36119b4565b5b828203905092915050565b600061190a8261192f565b9050919050565b600061191c8261192f565b9050919050565b60008115159050919050565b600073ffffffffffffffffffffffffffffffffffffffff82169050919050565b6000819050919050565b60006119648261194f565b9050919050565b60006119768261194f565b91507fffffffffffffffffffffffffffffffffffffffffffffffffffffffffffffffff8214156119a9576119a86119b4565b5b600182019050919050565b7f4e487b7100000000000000000000000000000000000000000000000000000000600052601160045260246000fd5b7f506c65617365207375626d6974207468652061736b696e67207072696365206960008201527f6e206f7264657220746f20636f6d706c65746520707572636861736500000000602082015250565b7f5072696365206d7573742062652061626f7665207a65726f0000000000000000600082015250565b7f5072696365206d75737420626520657175616c20746f206c697374696e67207060008201527f7269636500000000000000000000000000000000000000000000000000000000602082015250565b7f5265656e7472616e637947756172643a207265656e7472616e742063616c6c00600082015250565b611adc816118ff565b8114611ae757600080fd5b50565b611af38161194f565b8114611afe57600080fd5b5056fea2646970667358221220d55577c75998b9397cc9cb8fbd0972ae25871052c09bd33f1d1797a24c22ac8664736f6c63430008040033",
  "linkReferences": {},
  "deployedLinkReferences": {}
}